{
  "_format": "hh-sol-artifact-1",
  "contractName": "Tix",
  "sourceName": "contracts/Tix.sol",
  "abi": [
    {
      "inputs": [
        {
          "internalType": "address",
          "name": "initialOwner",
          "type": "address"
        }
      ],
      "stateMutability": "nonpayable",
      "type": "constructor"
    },
    {
      "inputs": [
        {
          "internalType": "address",
          "name": "sender",
          "type": "address"
        },
        {
          "internalType": "uint256",
          "name": "tokenId",
          "type": "uint256"
        },
        {
          "internalType": "address",
          "name": "owner",
          "type": "address"
        }
      ],
      "name": "ERC721IncorrectOwner",
      "type": "error"
    },
    {
      "inputs": [
        {
          "internalType": "address",
          "name": "operator",
          "type": "address"
        },
        {
          "internalType": "uint256",
          "name": "tokenId",
          "type": "uint256"
        }
      ],
      "name": "ERC721InsufficientApproval",
      "type": "error"
    },
    {
      "inputs": [
        {
          "internalType": "address",
          "name": "approver",
          "type": "address"
        }
      ],
      "name": "ERC721InvalidApprover",
      "type": "error"
    },
    {
      "inputs": [
        {
          "internalType": "address",
          "name": "operator",
          "type": "address"
        }
      ],
      "name": "ERC721InvalidOperator",
      "type": "error"
    },
    {
      "inputs": [
        {
          "internalType": "address",
          "name": "owner",
          "type": "address"
        }
      ],
      "name": "ERC721InvalidOwner",
      "type": "error"
    },
    {
      "inputs": [
        {
          "internalType": "address",
          "name": "receiver",
          "type": "address"
        }
      ],
      "name": "ERC721InvalidReceiver",
      "type": "error"
    },
    {
      "inputs": [
        {
          "internalType": "address",
          "name": "sender",
          "type": "address"
        }
      ],
      "name": "ERC721InvalidSender",
      "type": "error"
    },
    {
      "inputs": [
        {
          "internalType": "uint256",
          "name": "tokenId",
          "type": "uint256"
        }
      ],
      "name": "ERC721NonexistentToken",
      "type": "error"
    },
    {
      "inputs": [
        {
          "internalType": "address",
          "name": "owner",
          "type": "address"
        }
      ],
      "name": "OwnableInvalidOwner",
      "type": "error"
    },
    {
      "inputs": [
        {
          "internalType": "address",
          "name": "account",
          "type": "address"
        }
      ],
      "name": "OwnableUnauthorizedAccount",
      "type": "error"
    },
    {
      "anonymous": false,
      "inputs": [
        {
          "indexed": true,
          "internalType": "address",
          "name": "owner",
          "type": "address"
        },
        {
          "indexed": true,
          "internalType": "address",
          "name": "approved",
          "type": "address"
        },
        {
          "indexed": true,
          "internalType": "uint256",
          "name": "tokenId",
          "type": "uint256"
        }
      ],
      "name": "Approval",
      "type": "event"
    },
    {
      "anonymous": false,
      "inputs": [
        {
          "indexed": true,
          "internalType": "address",
          "name": "owner",
          "type": "address"
        },
        {
          "indexed": true,
          "internalType": "address",
          "name": "operator",
          "type": "address"
        },
        {
          "indexed": false,
          "internalType": "bool",
          "name": "approved",
          "type": "bool"
        }
      ],
      "name": "ApprovalForAll",
      "type": "event"
    },
    {
      "anonymous": false,
      "inputs": [
        {
          "indexed": false,
          "internalType": "uint256",
          "name": "_fromTokenId",
          "type": "uint256"
        },
        {
          "indexed": false,
          "internalType": "uint256",
          "name": "_toTokenId",
          "type": "uint256"
        }
      ],
      "name": "BatchMetadataUpdate",
      "type": "event"
    },
    {
      "anonymous": false,
      "inputs": [
        {
          "indexed": false,
          "internalType": "uint256",
          "name": "_tokenId",
          "type": "uint256"
        }
      ],
      "name": "MetadataUpdate",
      "type": "event"
    },
    {
      "anonymous": false,
      "inputs": [
        {
          "indexed": true,
          "internalType": "address",
          "name": "previousOwner",
          "type": "address"
        },
        {
          "indexed": true,
          "internalType": "address",
          "name": "newOwner",
          "type": "address"
        }
      ],
      "name": "OwnershipTransferred",
      "type": "event"
    },
    {
      "anonymous": false,
      "inputs": [
        {
          "indexed": true,
          "internalType": "address",
          "name": "from",
          "type": "address"
        },
        {
          "indexed": true,
          "internalType": "address",
          "name": "to",
          "type": "address"
        },
        {
          "indexed": true,
          "internalType": "uint256",
          "name": "tokenId",
          "type": "uint256"
        }
      ],
      "name": "Transfer",
      "type": "event"
    },
    {
      "inputs": [
        {
          "internalType": "address",
          "name": "to",
          "type": "address"
        },
        {
          "internalType": "uint256",
          "name": "tokenId",
          "type": "uint256"
        }
      ],
      "name": "approve",
      "outputs": [],
      "stateMutability": "nonpayable",
      "type": "function"
    },
    {
      "inputs": [
        {
          "internalType": "address",
          "name": "owner",
          "type": "address"
        }
      ],
      "name": "balanceOf",
      "outputs": [
        {
          "internalType": "uint256",
          "name": "",
          "type": "uint256"
        }
      ],
      "stateMutability": "view",
      "type": "function"
    },
    {
      "inputs": [
        {
          "internalType": "uint256",
          "name": "tokenId",
          "type": "uint256"
        }
      ],
      "name": "getApproved",
      "outputs": [
        {
          "internalType": "address",
          "name": "",
          "type": "address"
        }
      ],
      "stateMutability": "view",
      "type": "function"
    },
    {
      "inputs": [
        {
          "internalType": "address",
          "name": "owner",
          "type": "address"
        },
        {
          "internalType": "address",
          "name": "operator",
          "type": "address"
        }
      ],
      "name": "isApprovedForAll",
      "outputs": [
        {
          "internalType": "bool",
          "name": "",
          "type": "bool"
        }
      ],
      "stateMutability": "view",
      "type": "function"
    },
    {
      "inputs": [
        {
          "internalType": "string",
          "name": "uri",
          "type": "string"
        }
      ],
      "name": "isContentOwned",
      "outputs": [
        {
          "internalType": "bool",
          "name": "",
          "type": "bool"
        }
      ],
      "stateMutability": "view",
      "type": "function"
    },
    {
      "inputs": [],
      "name": "name",
      "outputs": [
        {
          "internalType": "string",
          "name": "",
          "type": "string"
        }
      ],
      "stateMutability": "view",
      "type": "function"
    },
    {
      "inputs": [],
      "name": "owner",
      "outputs": [
        {
          "internalType": "address",
          "name": "",
          "type": "address"
        }
      ],
      "stateMutability": "view",
      "type": "function"
    },
    {
      "inputs": [
        {
          "internalType": "uint256",
          "name": "tokenId",
          "type": "uint256"
        }
      ],
      "name": "ownerOf",
      "outputs": [
        {
          "internalType": "address",
          "name": "",
          "type": "address"
        }
      ],
      "stateMutability": "view",
      "type": "function"
    },
    {
      "inputs": [
        {
          "internalType": "address",
          "name": "to",
          "type": "address"
        },
        {
          "internalType": "string",
          "name": "uri",
          "type": "string"
        },
        {
          "internalType": "uint256",
          "name": "amount",
          "type": "uint256"
        }
      ],
      "name": "payToMint",
      "outputs": [
        {
          "internalType": "uint256",
          "name": "",
          "type": "uint256"
        }
      ],
      "stateMutability": "payable",
      "type": "function"
    },
    {
      "inputs": [],
      "name": "renounceOwnership",
      "outputs": [],
      "stateMutability": "nonpayable",
      "type": "function"
    },
    {
      "inputs": [
        {
          "internalType": "address",
          "name": "to",
          "type": "address"
        },
        {
          "internalType": "string",
          "name": "uri",
          "type": "string"
        }
      ],
      "name": "safeMint",
      "outputs": [
        {
          "internalType": "uint256",
          "name": "",
          "type": "uint256"
        }
      ],
      "stateMutability": "nonpayable",
      "type": "function"
    },
    {
      "inputs": [
        {
          "internalType": "address",
          "name": "from",
          "type": "address"
        },
        {
          "internalType": "address",
          "name": "to",
          "type": "address"
        },
        {
          "internalType": "uint256",
          "name": "tokenId",
          "type": "uint256"
        }
      ],
      "name": "safeTransferFrom",
      "outputs": [],
      "stateMutability": "nonpayable",
      "type": "function"
    },
    {
      "inputs": [
        {
          "internalType": "address",
          "name": "from",
          "type": "address"
        },
        {
          "internalType": "address",
          "name": "to",
          "type": "address"
        },
        {
          "internalType": "uint256",
          "name": "tokenId",
          "type": "uint256"
        },
        {
          "internalType": "bytes",
          "name": "data",
          "type": "bytes"
        }
      ],
      "name": "safeTransferFrom",
      "outputs": [],
      "stateMutability": "nonpayable",
      "type": "function"
    },
    {
      "inputs": [
        {
          "internalType": "address",
          "name": "operator",
          "type": "address"
        },
        {
          "internalType": "bool",
          "name": "approved",
          "type": "bool"
        }
      ],
      "name": "setApprovalForAll",
      "outputs": [],
      "stateMutability": "nonpayable",
      "type": "function"
    },
    {
      "inputs": [
        {
          "internalType": "bytes4",
          "name": "interfaceId",
          "type": "bytes4"
        }
      ],
      "name": "supportsInterface",
      "outputs": [
        {
          "internalType": "bool",
          "name": "",
          "type": "bool"
        }
      ],
      "stateMutability": "view",
      "type": "function"
    },
    {
      "inputs": [],
      "name": "symbol",
      "outputs": [
        {
          "internalType": "string",
          "name": "",
          "type": "string"
        }
      ],
      "stateMutability": "view",
      "type": "function"
    },
    {
      "inputs": [
        {
          "internalType": "uint256",
          "name": "tokenId",
          "type": "uint256"
        }
      ],
      "name": "tokenURI",
      "outputs": [
        {
          "internalType": "string",
          "name": "",
          "type": "string"
        }
      ],
      "stateMutability": "view",
      "type": "function"
    },
    {
      "inputs": [
        {
          "internalType": "address",
          "name": "from",
          "type": "address"
        },
        {
          "internalType": "address",
          "name": "to",
          "type": "address"
        },
        {
          "internalType": "uint256",
          "name": "tokenId",
          "type": "uint256"
        }
      ],
      "name": "transferFrom",
      "outputs": [],
      "stateMutability": "nonpayable",
      "type": "function"
    },
    {
      "inputs": [
        {
          "internalType": "address",
          "name": "newOwner",
          "type": "address"
        }
      ],
      "name": "transferOwnership",
      "outputs": [],
      "stateMutability": "nonpayable",
      "type": "function"
    }
  ],
  "bytecode": "0x608060405234801561001057600080fd5b506040516131e53803806131e583398181016040528101906100329190610272565b806040518060400160405280600381526020017f54697800000000000000000000000000000000000000000000000000000000008152506040518060400160405280600381526020017f4e5458000000000000000000000000000000000000000000000000000000000081525081600090816100ae91906104ef565b5080600190816100be91906104ef565b505050600073ffffffffffffffffffffffffffffffffffffffff168173ffffffffffffffffffffffffffffffffffffffff16036101335760006040517f1e4fbdf700000000000000000000000000000000000000000000000000000000815260040161012a91906105d0565b60405180910390fd5b6101428161014960201b60201c565b50506105eb565b6000600760009054906101000a900473ffffffffffffffffffffffffffffffffffffffff16905081600760006101000a81548173ffffffffffffffffffffffffffffffffffffffff021916908373ffffffffffffffffffffffffffffffffffffffff1602179055508173ffffffffffffffffffffffffffffffffffffffff168173ffffffffffffffffffffffffffffffffffffffff167f8be0079c531659141344cd1fd0a4f28419497f9722a3daafe3b4186f6b6457e060405160405180910390a35050565b600080fd5b600073ffffffffffffffffffffffffffffffffffffffff82169050919050565b600061023f82610214565b9050919050565b61024f81610234565b811461025a57600080fd5b50565b60008151905061026c81610246565b92915050565b6000602082840312156102885761028761020f565b5b60006102968482850161025d565b91505092915050565b600081519050919050565b7f4e487b7100000000000000000000000000000000000000000000000000000000600052604160045260246000fd5b7f4e487b7100000000000000000000000000000000000000000000000000000000600052602260045260246000fd5b6000600282049050600182168061032057607f821691505b602082108103610333576103326102d9565b5b50919050565b60008190508160005260206000209050919050565b60006020601f8301049050919050565b600082821b905092915050565b60006008830261039b7fffffffffffffffffffffffffffffffffffffffffffffffffffffffffffffffff8261035e565b6103a5868361035e565b95508019841693508086168417925050509392505050565b6000819050919050565b6000819050919050565b60006103ec6103e76103e2846103bd565b6103c7565b6103bd565b9050919050565b6000819050919050565b610406836103d1565b61041a610412826103f3565b84845461036b565b825550505050565b600090565b61042f610422565b61043a8184846103fd565b505050565b5b8181101561045e57610453600082610427565b600181019050610440565b5050565b601f8211156104a35761047481610339565b61047d8461034e565b8101602085101561048c578190505b6104a06104988561034e565b83018261043f565b50505b505050565b600082821c905092915050565b60006104c6600019846008026104a8565b1980831691505092915050565b60006104df83836104b5565b9150826002028217905092915050565b6104f88261029f565b67ffffffffffffffff811115610511576105106102aa565b5b61051b8254610308565b610526828285610462565b600060209050601f8311600181146105595760008415610547578287015190505b61055185826104d3565b8655506105b9565b601f19841661056786610339565b60005b8281101561058f5784890151825560018201915060208501945060208101905061056a565b868310156105ac57848901516105a8601f8916826104b5565b8355505b6001600288020188555050505b505050505050565b6105ca81610234565b82525050565b60006020820190506105e560008301846105c1565b92915050565b612beb806105fa6000396000f3fe6080604052600436106101145760003560e01c8063715018a6116100a0578063b88d4fde11610064578063b88d4fde146103b6578063c87b56dd146103df578063d204c45e1461041c578063e985e9c514610459578063f2fde38b1461049657610114565b8063715018a6146102e35780638da5cb5b146102fa57806395d89b41146103255780639f1cabc614610350578063a22cb4651461038d57610114565b806323b872dd116100e757806323b872dd146101e757806342842e0e1461021057806351e74c2a146102395780636352211e1461026957806370a08231146102a657610114565b806301ffc9a71461011957806306fdde0314610156578063081812fc14610181578063095ea7b3146101be575b600080fd5b34801561012557600080fd5b50610140600480360381019061013b9190611e30565b6104bf565b60405161014d9190611e78565b60405180910390f35b34801561016257600080fd5b5061016b6104d1565b6040516101789190611f23565b60405180910390f35b34801561018d57600080fd5b506101a860048036038101906101a39190611f7b565b610563565b6040516101b59190611fe9565b60405180910390f35b3480156101ca57600080fd5b506101e560048036038101906101e09190612030565b61057f565b005b3480156101f357600080fd5b5061020e60048036038101906102099190612070565b610595565b005b34801561021c57600080fd5b5061023760048036038101906102329190612070565b610697565b005b610253600480360381019061024e91906121f8565b6106b7565b6040516102609190612276565b60405180910390f35b34801561027557600080fd5b50610290600480360381019061028b9190611f7b565b6107f9565b60405161029d9190611fe9565b60405180910390f35b3480156102b257600080fd5b506102cd60048036038101906102c89190612291565b61080b565b6040516102da9190612276565b60405180910390f35b3480156102ef57600080fd5b506102f86108c5565b005b34801561030657600080fd5b5061030f6108d9565b60405161031c9190611fe9565b60405180910390f35b34801561033157600080fd5b5061033a610903565b6040516103479190611f23565b60405180910390f35b34801561035c57600080fd5b50610377600480360381019061037291906122be565b610995565b6040516103849190611e78565b60405180910390f35b34801561039957600080fd5b506103b460048036038101906103af9190612333565b6109d0565b005b3480156103c257600080fd5b506103dd60048036038101906103d89190612414565b6109e6565b005b3480156103eb57600080fd5b5061040660048036038101906104019190611f7b565b610a0b565b6040516104139190611f23565b60405180910390f35b34801561042857600080fd5b50610443600480360381019061043e9190612497565b610a1d565b6040516104509190612276565b60405180910390f35b34801561046557600080fd5b50610480600480360381019061047b91906124f3565b610ae1565b60405161048d9190611e78565b60405180910390f35b3480156104a257600080fd5b506104bd60048036038101906104b89190612291565b610b75565b005b60006104ca82610bfb565b9050919050565b6060600080546104e090612562565b80601f016020809104026020016040519081016040528092919081815260200182805461050c90612562565b80156105595780601f1061052e57610100808354040283529160200191610559565b820191906000526020600020905b81548152906001019060200180831161053c57829003601f168201915b5050505050905090565b600061056e82610c5c565b5061057882610ce4565b9050919050565b610591828261058c610d21565b610d29565b5050565b600073ffffffffffffffffffffffffffffffffffffffff168273ffffffffffffffffffffffffffffffffffffffff16036106075760006040517f64a0ae920000000000000000000000000000000000000000000000000000000081526004016105fe9190611fe9565b60405180910390fd5b600061061b8383610616610d21565b610d3b565b90508373ffffffffffffffffffffffffffffffffffffffff168173ffffffffffffffffffffffffffffffffffffffff1614610691578382826040517f64283d7b00000000000000000000000000000000000000000000000000000000815260040161068893929190612593565b60405180910390fd5b50505050565b6106b2838383604051806020016040528060008152506109e6565b505050565b60008134146106fb576040517f08c379a00000000000000000000000000000000000000000000000000000000081526004016106f290612616565b60405180910390fd5b6000341161073e576040517f08c379a000000000000000000000000000000000000000000000000000000000815260040161073590612682565b60405180910390fd5b61074783610995565b15610787576040517f08c379a000000000000000000000000000000000000000000000000000000000815260040161077e906126ee565b60405180910390fd5b60006008600081548092919061079c9061273d565b9190505590506107ac8582610f55565b6107b6818561104e565b60016009856040516107c891906127c1565b908152602001604051809103902060006101000a81548160ff021916908360ff160217905550809150509392505050565b600061080482610c5c565b9050919050565b60008073ffffffffffffffffffffffffffffffffffffffff168273ffffffffffffffffffffffffffffffffffffffff160361087e5760006040517f89c62b640000000000000000000000000000000000000000000000000000000081526004016108759190611fe9565b60405180910390fd5b600360008373ffffffffffffffffffffffffffffffffffffffff1673ffffffffffffffffffffffffffffffffffffffff168152602001908152602001600020549050919050565b6108cd6110aa565b6108d76000611131565b565b6000600760009054906101000a900473ffffffffffffffffffffffffffffffffffffffff16905090565b60606001805461091290612562565b80601f016020809104026020016040519081016040528092919081815260200182805461093e90612562565b801561098b5780601f106109605761010080835404028352916020019161098b565b820191906000526020600020905b81548152906001019060200180831161096e57829003601f168201915b5050505050905090565b600060016009836040516109a991906127c1565b908152602001604051809103902060009054906101000a900460ff1660ff16149050919050565b6109e26109db610d21565b83836111f7565b5050565b6109f1848484610595565b610a056109fc610d21565b85858585611366565b50505050565b6060610a1682611517565b9050919050565b6000610a276110aa565b610a3082610995565b15610a70576040517f08c379a0000000000000000000000000000000000000000000000000000000008152600401610a67906126ee565b60405180910390fd5b600060086000815480929190610a859061273d565b919050559050610a958482610f55565b610a9f818461104e565b6001600984604051610ab191906127c1565b908152602001604051809103902060006101000a81548160ff021916908360ff1602179055508091505092915050565b6000600560008473ffffffffffffffffffffffffffffffffffffffff1673ffffffffffffffffffffffffffffffffffffffff16815260200190815260200160002060008373ffffffffffffffffffffffffffffffffffffffff1673ffffffffffffffffffffffffffffffffffffffff16815260200190815260200160002060009054906101000a900460ff16905092915050565b610b7d6110aa565b600073ffffffffffffffffffffffffffffffffffffffff168173ffffffffffffffffffffffffffffffffffffffff1603610bef5760006040517f1e4fbdf7000000000000000000000000000000000000000000000000000000008152600401610be69190611fe9565b60405180910390fd5b610bf881611131565b50565b6000634906490660e01b7bffffffffffffffffffffffffffffffffffffffffffffffffffffffff1916827bffffffffffffffffffffffffffffffffffffffffffffffffffffffff19161480610c555750610c548261162a565b5b9050919050565b600080610c688361170c565b9050600073ffffffffffffffffffffffffffffffffffffffff168173ffffffffffffffffffffffffffffffffffffffff1603610cdb57826040517f7e273289000000000000000000000000000000000000000000000000000000008152600401610cd29190612276565b60405180910390fd5b80915050919050565b60006004600083815260200190815260200160002060009054906101000a900473ffffffffffffffffffffffffffffffffffffffff169050919050565b600033905090565b610d368383836001611749565b505050565b600080610d478461170c565b9050600073ffffffffffffffffffffffffffffffffffffffff168373ffffffffffffffffffffffffffffffffffffffff1614610d8957610d8881848661190e565b5b600073ffffffffffffffffffffffffffffffffffffffff168173ffffffffffffffffffffffffffffffffffffffff1614610e1a57610dcb600085600080611749565b6001600360008373ffffffffffffffffffffffffffffffffffffffff1673ffffffffffffffffffffffffffffffffffffffff168152602001908152602001600020600082825403925050819055505b600073ffffffffffffffffffffffffffffffffffffffff168573ffffffffffffffffffffffffffffffffffffffff1614610e9d576001600360008773ffffffffffffffffffffffffffffffffffffffff1673ffffffffffffffffffffffffffffffffffffffff168152602001908152602001600020600082825401925050819055505b846002600086815260200190815260200160002060006101000a81548173ffffffffffffffffffffffffffffffffffffffff021916908373ffffffffffffffffffffffffffffffffffffffff160217905550838573ffffffffffffffffffffffffffffffffffffffff168273ffffffffffffffffffffffffffffffffffffffff167fddf252ad1be2c89b69c2b068fc378daa952ba7f163c4a11628f55a4df523b3ef60405160405180910390a4809150509392505050565b600073ffffffffffffffffffffffffffffffffffffffff168273ffffffffffffffffffffffffffffffffffffffff1603610fc75760006040517f64a0ae92000000000000000000000000000000000000000000000000000000008152600401610fbe9190611fe9565b60405180910390fd5b6000610fd583836000610d3b565b9050600073ffffffffffffffffffffffffffffffffffffffff168173ffffffffffffffffffffffffffffffffffffffff16146110495760006040517f73c6ac6e0000000000000000000000000000000000000000000000000000000081526004016110409190611fe9565b60405180910390fd5b505050565b8060066000848152602001908152602001600020908161106e9190612984565b507ff8e1a15aba9398e019f0b49df1a4fde98ee17ae345cb5f6b5e2c27f5033e8ce78260405161109e9190612276565b60405180910390a15050565b6110b2610d21565b73ffffffffffffffffffffffffffffffffffffffff166110d06108d9565b73ffffffffffffffffffffffffffffffffffffffff161461112f576110f3610d21565b6040517f118cdaa70000000000000000000000000000000000000000000000000000000081526004016111269190611fe9565b60405180910390fd5b565b6000600760009054906101000a900473ffffffffffffffffffffffffffffffffffffffff16905081600760006101000a81548173ffffffffffffffffffffffffffffffffffffffff021916908373ffffffffffffffffffffffffffffffffffffffff1602179055508173ffffffffffffffffffffffffffffffffffffffff168173ffffffffffffffffffffffffffffffffffffffff167f8be0079c531659141344cd1fd0a4f28419497f9722a3daafe3b4186f6b6457e060405160405180910390a35050565b600073ffffffffffffffffffffffffffffffffffffffff168273ffffffffffffffffffffffffffffffffffffffff160361126857816040517f5b08ba1800000000000000000000000000000000000000000000000000000000815260040161125f9190611fe9565b60405180910390fd5b80600560008573ffffffffffffffffffffffffffffffffffffffff1673ffffffffffffffffffffffffffffffffffffffff16815260200190815260200160002060008473ffffffffffffffffffffffffffffffffffffffff1673ffffffffffffffffffffffffffffffffffffffff16815260200190815260200160002060006101000a81548160ff0219169083151502179055508173ffffffffffffffffffffffffffffffffffffffff168373ffffffffffffffffffffffffffffffffffffffff167f17307eab39ab6107e8899845ad3d59bd9653f200f220920489ca2b5937696c31836040516113599190611e78565b60405180910390a3505050565b60008373ffffffffffffffffffffffffffffffffffffffff163b1115611510578273ffffffffffffffffffffffffffffffffffffffff1663150b7a02868685856040518563ffffffff1660e01b81526004016113c59493929190612aab565b6020604051808303816000875af192505050801561140157506040513d601f19601f820116820180604052508101906113fe9190612b0c565b60015b611485573d8060008114611431576040519150601f19603f3d011682016040523d82523d6000602084013e611436565b606091505b50600081510361147d57836040517f64a0ae920000000000000000000000000000000000000000000000000000000081526004016114749190611fe9565b60405180910390fd5b805181602001fd5b63150b7a0260e01b7bffffffffffffffffffffffffffffffffffffffffffffffffffffffff1916817bffffffffffffffffffffffffffffffffffffffffffffffffffffffff19161461150e57836040517f64a0ae920000000000000000000000000000000000000000000000000000000081526004016115059190611fe9565b60405180910390fd5b505b5050505050565b606061152282610c5c565b50600060066000848152602001908152602001600020805461154390612562565b80601f016020809104026020016040519081016040528092919081815260200182805461156f90612562565b80156115bc5780601f10611591576101008083540402835291602001916115bc565b820191906000526020600020905b81548152906001019060200180831161159f57829003601f168201915b5050505050905060006115cd6119d2565b905060008151036115e2578192505050611625565b6000825111156116175780826040516020016115ff929190612b39565b60405160208183030381529060405292505050611625565b61162084611a0f565b925050505b919050565b60007f80ac58cd000000000000000000000000000000000000000000000000000000007bffffffffffffffffffffffffffffffffffffffffffffffffffffffff1916827bffffffffffffffffffffffffffffffffffffffffffffffffffffffff191614806116f557507f5b5e139f000000000000000000000000000000000000000000000000000000007bffffffffffffffffffffffffffffffffffffffffffffffffffffffff1916827bffffffffffffffffffffffffffffffffffffffffffffffffffffffff1916145b80611705575061170482611a78565b5b9050919050565b60006002600083815260200190815260200160002060009054906101000a900473ffffffffffffffffffffffffffffffffffffffff169050919050565b80806117825750600073ffffffffffffffffffffffffffffffffffffffff168273ffffffffffffffffffffffffffffffffffffffff1614155b156118b657600061179284610c5c565b9050600073ffffffffffffffffffffffffffffffffffffffff168373ffffffffffffffffffffffffffffffffffffffff16141580156117fd57508273ffffffffffffffffffffffffffffffffffffffff168173ffffffffffffffffffffffffffffffffffffffff1614155b8015611810575061180e8184610ae1565b155b1561185257826040517fa9fbf51f0000000000000000000000000000000000000000000000000000000081526004016118499190611fe9565b60405180910390fd5b81156118b457838573ffffffffffffffffffffffffffffffffffffffff168273ffffffffffffffffffffffffffffffffffffffff167f8c5be1e5ebec7d5bd14f71427d1e84f3dd0314c0f7b2291e5b200ac8c7c3b92560405160405180910390a45b505b836004600085815260200190815260200160002060006101000a81548173ffffffffffffffffffffffffffffffffffffffff021916908373ffffffffffffffffffffffffffffffffffffffff16021790555050505050565b611919838383611ae2565b6119cd57600073ffffffffffffffffffffffffffffffffffffffff168373ffffffffffffffffffffffffffffffffffffffff160361198e57806040517f7e2732890000000000000000000000000000000000000000000000000000000081526004016119859190612276565b60405180910390fd5b81816040517f177e802f0000000000000000000000000000000000000000000000000000000081526004016119c4929190612b5d565b60405180910390fd5b505050565b60606040518060400160405280600781526020017f697066733a2f2f00000000000000000000000000000000000000000000000000815250905090565b6060611a1a82610c5c565b506000611a256119d2565b90506000815111611a455760405180602001604052806000815250611a70565b80611a4f84611ba3565b604051602001611a60929190612b39565b6040516020818303038152906040525b915050919050565b60007f01ffc9a7000000000000000000000000000000000000000000000000000000007bffffffffffffffffffffffffffffffffffffffffffffffffffffffff1916827bffffffffffffffffffffffffffffffffffffffffffffffffffffffff1916149050919050565b60008073ffffffffffffffffffffffffffffffffffffffff168373ffffffffffffffffffffffffffffffffffffffff1614158015611b9a57508273ffffffffffffffffffffffffffffffffffffffff168473ffffffffffffffffffffffffffffffffffffffff161480611b5b5750611b5a8484610ae1565b5b80611b9957508273ffffffffffffffffffffffffffffffffffffffff16611b8183610ce4565b73ffffffffffffffffffffffffffffffffffffffff16145b5b90509392505050565b606060006001611bb284611c71565b01905060008167ffffffffffffffff811115611bd157611bd06120cd565b5b6040519080825280601f01601f191660200182016040528015611c035781602001600182028036833780820191505090505b509050600082602001820190505b600115611c66578080600190039150507f3031323334353637383961626364656600000000000000000000000000000000600a86061a8153600a8581611c5a57611c59612b86565b5b04945060008503611c11575b819350505050919050565b600080600090507a184f03e93ff9f4daa797ed6e38ed64bf6a1f0100000000000000008310611ccf577a184f03e93ff9f4daa797ed6e38ed64bf6a1f0100000000000000008381611cc557611cc4612b86565b5b0492506040810190505b6d04ee2d6d415b85acef81000000008310611d0c576d04ee2d6d415b85acef81000000008381611d0257611d01612b86565b5b0492506020810190505b662386f26fc100008310611d3b57662386f26fc100008381611d3157611d30612b86565b5b0492506010810190505b6305f5e1008310611d64576305f5e1008381611d5a57611d59612b86565b5b0492506008810190505b6127108310611d89576127108381611d7f57611d7e612b86565b5b0492506004810190505b60648310611dac5760648381611da257611da1612b86565b5b0492506002810190505b600a8310611dbb576001810190505b80915050919050565b6000604051905090565b600080fd5b600080fd5b60007fffffffff0000000000000000000000000000000000000000000000000000000082169050919050565b611e0d81611dd8565b8114611e1857600080fd5b50565b600081359050611e2a81611e04565b92915050565b600060208284031215611e4657611e45611dce565b5b6000611e5484828501611e1b565b91505092915050565b60008115159050919050565b611e7281611e5d565b82525050565b6000602082019050611e8d6000830184611e69565b92915050565b600081519050919050565b600082825260208201905092915050565b60005b83811015611ecd578082015181840152602081019050611eb2565b60008484015250505050565b6000601f19601f8301169050919050565b6000611ef582611e93565b611eff8185611e9e565b9350611f0f818560208601611eaf565b611f1881611ed9565b840191505092915050565b60006020820190508181036000830152611f3d8184611eea565b905092915050565b6000819050919050565b611f5881611f45565b8114611f6357600080fd5b50565b600081359050611f7581611f4f565b92915050565b600060208284031215611f9157611f90611dce565b5b6000611f9f84828501611f66565b91505092915050565b600073ffffffffffffffffffffffffffffffffffffffff82169050919050565b6000611fd382611fa8565b9050919050565b611fe381611fc8565b82525050565b6000602082019050611ffe6000830184611fda565b92915050565b61200d81611fc8565b811461201857600080fd5b50565b60008135905061202a81612004565b92915050565b6000806040838503121561204757612046611dce565b5b60006120558582860161201b565b925050602061206685828601611f66565b9150509250929050565b60008060006060848603121561208957612088611dce565b5b60006120978682870161201b565b93505060206120a88682870161201b565b92505060406120b986828701611f66565b9150509250925092565b600080fd5b600080fd5b7f4e487b7100000000000000000000000000000000000000000000000000000000600052604160045260246000fd5b61210582611ed9565b810181811067ffffffffffffffff82111715612124576121236120cd565b5b80604052505050565b6000612137611dc4565b905061214382826120fc565b919050565b600067ffffffffffffffff821115612163576121626120cd565b5b61216c82611ed9565b9050602081019050919050565b82818337600083830152505050565b600061219b61219684612148565b61212d565b9050828152602081018484840111156121b7576121b66120c8565b5b6121c2848285612179565b509392505050565b600082601f8301126121df576121de6120c3565b5b81356121ef848260208601612188565b91505092915050565b60008060006060848603121561221157612210611dce565b5b600061221f8682870161201b565b935050602084013567ffffffffffffffff8111156122405761223f611dd3565b5b61224c868287016121ca565b925050604061225d86828701611f66565b9150509250925092565b61227081611f45565b82525050565b600060208201905061228b6000830184612267565b92915050565b6000602082840312156122a7576122a6611dce565b5b60006122b58482850161201b565b91505092915050565b6000602082840312156122d4576122d3611dce565b5b600082013567ffffffffffffffff8111156122f2576122f1611dd3565b5b6122fe848285016121ca565b91505092915050565b61231081611e5d565b811461231b57600080fd5b50565b60008135905061232d81612307565b92915050565b6000806040838503121561234a57612349611dce565b5b60006123588582860161201b565b92505060206123698582860161231e565b9150509250929050565b600067ffffffffffffffff82111561238e5761238d6120cd565b5b61239782611ed9565b9050602081019050919050565b60006123b76123b284612373565b61212d565b9050828152602081018484840111156123d3576123d26120c8565b5b6123de848285612179565b509392505050565b600082601f8301126123fb576123fa6120c3565b5b813561240b8482602086016123a4565b91505092915050565b6000806000806080858703121561242e5761242d611dce565b5b600061243c8782880161201b565b945050602061244d8782880161201b565b935050604061245e87828801611f66565b925050606085013567ffffffffffffffff81111561247f5761247e611dd3565b5b61248b878288016123e6565b91505092959194509250565b600080604083850312156124ae576124ad611dce565b5b60006124bc8582860161201b565b925050602083013567ffffffffffffffff8111156124dd576124dc611dd3565b5b6124e9858286016121ca565b9150509250929050565b6000806040838503121561250a57612509611dce565b5b60006125188582860161201b565b92505060206125298582860161201b565b9150509250929050565b7f4e487b7100000000000000000000000000000000000000000000000000000000600052602260045260246000fd5b6000600282049050600182168061257a57607f821691505b60208210810361258d5761258c612533565b5b50919050565b60006060820190506125a86000830186611fda565b6125b56020830185612267565b6125c26040830184611fda565b949350505050565b7f496e636f72726563742045746865722076616c75652073656e74000000000000600082015250565b6000612600601a83611e9e565b915061260b826125ca565b602082019050919050565b6000602082019050818103600083015261262f816125f3565b9050919050565b7f416d6f756e74206d7573742062652067726561746572207468616e207a65726f600082015250565b600061266c602083611e9e565b915061267782612636565b602082019050919050565b6000602082019050818103600083015261269b8161265f565b9050919050565b7f436f6e74656e7420616c7265616479206f776e65640000000000000000000000600082015250565b60006126d8601583611e9e565b91506126e3826126a2565b602082019050919050565b60006020820190508181036000830152612707816126cb565b9050919050565b7f4e487b7100000000000000000000000000000000000000000000000000000000600052601160045260246000fd5b600061274882611f45565b91507fffffffffffffffffffffffffffffffffffffffffffffffffffffffffffffffff820361277a5761277961270e565b5b600182019050919050565b600081905092915050565b600061279b82611e93565b6127a58185612785565b93506127b5818560208601611eaf565b80840191505092915050565b60006127cd8284612790565b915081905092915050565b60008190508160005260206000209050919050565b60006020601f8301049050919050565b600082821b905092915050565b60006008830261283a7fffffffffffffffffffffffffffffffffffffffffffffffffffffffffffffffff826127fd565b61284486836127fd565b95508019841693508086168417925050509392505050565b6000819050919050565b600061288161287c61287784611f45565b61285c565b611f45565b9050919050565b6000819050919050565b61289b83612866565b6128af6128a782612888565b84845461280a565b825550505050565b600090565b6128c46128b7565b6128cf818484612892565b505050565b5b818110156128f3576128e86000826128bc565b6001810190506128d5565b5050565b601f82111561293857612909816127d8565b612912846127ed565b81016020851015612921578190505b61293561292d856127ed565b8301826128d4565b50505b505050565b600082821c905092915050565b600061295b6000198460080261293d565b1980831691505092915050565b6000612974838361294a565b9150826002028217905092915050565b61298d82611e93565b67ffffffffffffffff8111156129a6576129a56120cd565b5b6129b08254612562565b6129bb8282856128f7565b600060209050601f8311600181146129ee57600084156129dc578287015190505b6129e68582612968565b865550612a4e565b601f1984166129fc866127d8565b60005b82811015612a24578489015182556001820191506020850194506020810190506129ff565b86831015612a415784890151612a3d601f89168261294a565b8355505b6001600288020188555050505b505050505050565b600081519050919050565b600082825260208201905092915050565b6000612a7d82612a56565b612a878185612a61565b9350612a97818560208601611eaf565b612aa081611ed9565b840191505092915050565b6000608082019050612ac06000830187611fda565b612acd6020830186611fda565b612ada6040830185612267565b8181036060830152612aec8184612a72565b905095945050505050565b600081519050612b0681611e04565b92915050565b600060208284031215612b2257612b21611dce565b5b6000612b3084828501612af7565b91505092915050565b6000612b458285612790565b9150612b518284612790565b91508190509392505050565b6000604082019050612b726000830185611fda565b612b7f6020830184612267565b9392505050565b7f4e487b7100000000000000000000000000000000000000000000000000000000600052601260045260246000fdfea2646970667358221220388384ae8c2b861f9fb21ce7da4f73c65a5780dc033b8822e9570f89a58e4f4564736f6c634300081c0033",
  "linkReferences": {},
  "deployedLinkReferences": {}
}